:0200000460009A
:100000004643464200000156000000000103030081
:1000100000000000000000000000000000000000E0
:1000200000000000000000000000000000000000D0
:1000300000000000000000000000000000000000C0
:1000400000000000010408000000000000000000A3
:100050000000200000000000000000000000000080
:100060000000000000000000000000000000000090
:100070000000000000000000000000000000000080
:10008000EB04180A063204260000000000000000FD
:10009000050404240000000000000000000000002F
:1000A0000000000000000000000000000000000050
:1000B0000604000000000000000000000000000036
:1000C0000000000000000000000000000000000030
:1000D00020041808000000000000000000000000DC
:1000E0000000000000000000000000000000000010
:1000F0000000000000000000000000000000000000
:10010000D8041808000000000000000000000000F3
:100110000204180804200000000000000000000095
:1001200000000000000000000000000000000000CF
:10013000600400000000000000000000000000005B
:1001400000000000000000000000000000000000AF
:10015000000000000000000000000000000000009F
:10016000000000000000000000000000000000008F
:10017000000000000000000000000000000000007F
:10018000000000000000000000000000000000006F
:10019000000000000000000000000000000000005F
:1001A000000000000000000000000000000000004F
:1001B000000000000000000000000000000000003F
:1001C000000100000010000001000000000000001D
:1001D000000001000000000000000000000000001E
:1001E000000000000000000000000000000000000F
:1001F00000000000000000000000000000000000FF
:10020000FFFFFFFFFFFFFFFFFFFFFFFFFFFFFFFFFE
:10021000FFFFFFFFFFFFFFFFFFFFFFFFFFFFFFFFEE
:10100000D1002043491600600000000000000000ED
:10101000201000600010006000F800600000000078
:10102000000000600004010000000000FFFFFFFF5F
:10103000FFFFFFFFFFFFFFFFFFFFFFFFFFFFFFFFC0
:10104000FFFFFFFFFFFFFFFFFFFFFFFFFFFFFFFFB0
:10105000FFFFFFFFFFFFFFFFFFFFFFFFFFFFFFFFA0
:10106000FFFFFFFFFFFFFFFFFFFFFFFFFFFFFFFF90
:10140000814205D051F8043B40F8043B8242F9D8B0
:10141000704700BF044A05494FF0000342F8043BFF
:101420009142FBD8704700BFC0260020C05A002060
:101430002DE98848BFF34F8F00BF00BF00BF00BF3A
:1014400000F0D4F9674B0822C3F8542100BF00BF55
:1014500000BF00BF00BF00BF00BF00BF00BF00BF94
:1014600000BF00BF00BF00BF00BF00BF5E4A5F49B2
:101470005F48FFF7C5FF5F4A5F496048FFF7C0FF5D
:101480005F4CFFF7C7FF4FF470004FF0E0210023DF
:101490005C4AC1F8880D44F823200133B02BFAD1FF
:1014A000594B8021594A03F8011B9342FBD14FF05D
:1014B000E0254C4E4FF08039DFF880B1DFF880A195
:1014C0004FF0FF31C5F8084D0027C6F80491C6F863
:1014D00000B1C6F8F490C6F8F0A0D5F8243DDFF8C6
:1014E000648143F4E0234A4AC5F8243DD8F81C300F
:1014F00023F07F0343F04003C8F81C30D8F82430B1
:1015000023F07F0343F04003C8F824309166D1668E
:101510001167516700F072F93E4B3F49A3633F4B9F
:10152000E36363236B610323AF612B613C4BC5F81D
:10153000203DD5F8FC3D43F08073C5F8FC3D394BA8
:101540001A6842F001021A605B680B6000F0DEF975
:10155000C6F804913448C6F800B1C6F8F490C6F84D
:10156000F0A000F075FBD8F86C10304B304A41F415
:101570004051C8F86C101F60C3F80871C3F81871A7
:10158000C3F82871C3F83871936BDB0708D442F6AF
:101590001563284951651365936B43F00103936309
:1015A000234A254C936843F00113936000F012FB2B
:1015B00000F05AFB00F0D8F900F01AF92368132B59
:1015C000FCD900F069FA2368B3F5967FFBD300F0ED
:1015D00013F900F00FF900F033FB00F03DFB30BFD2
:1015E000FDE700BF00800D4058B10000881E00607C
:1015F00000000000C0260020E4CF006000000020B2
:1016000000240020FD7E000000E400E0A0E400E0F3
:1016100000C00A40057000005C5A002009700000FC
:1016200000002020001000E00046C32300400840D6
:1016300000400D400000C056605A00201B101820CA
:101640000C0D111300C00F40054B4FF42A01054A41
:1016500005485A641864054A99639546FFF7E8FE01
:1016600000C00A40AFAAAAAA070020000000072075
:1016700043690A4A03EB011010B4037A084C02EBE9
:101680000313D3E901321460C2681A6003690BB115
:1016900042691A605DF8044B704700BF801100205A
:1016A00061F801004369027E03EB021292F808C060
:1016B0008C451CD01A7AFF2A19D0914210B50446E5
:1016C00016D01A7EFF2A06D00121D3E90023126822
:1016D0001A4201D1217610BD064B0522204603EBAC
:1016E0000C135B681A60FFF7C3FF2176F3E77047BE
:1016F0000021EAE78011002043690A4A03EB011048
:1017000010B490F82830084C02EB0313D3E90132EF
:101710001460C26A1A60036B0BB1426B1A605DF809
:10172000044B70478011002061F801004369427E3C
:1017300003EB021292F828C08C451ED093F82820A3
:10174000FF2A1AD0914210B5044617D093F83820DA
:10175000FF2A06D00121D3E9002312681A4201D1E1
:10176000617610BD064B0522204603EB0C135B6827
:101770001A60FFF7C1FF6176F3E770470021EAE7DF
:1017800080110020164942698B6B23F47C0343F4DB
:10179000802370B58B630446124DD2E900130A68AA
:1017A0001A4303690A60022200211A610E4A196174
:1017B0009A6401225A629D624FF43035DD624FF027
:1017C00001159E6C1E6519629D651A61017EFFF709
:1017D0004FFF617E2046BDE87040FFF78DBF00BF20
:1017E00000C00F40B80B05053B372819704700BFF4
:1017F000704700BF704700BF00BF704710B44FF084
:10180000E023002110243148C3F8941DC3F89C4DF7
:101810001124C3F8A00D2E48C3F89C4D1224C3F820
:10182000A00D2C48C3F89C4D2B4AC3F8A00D2B4C9F
:1018300042F015022A48C3F89C4DC3F8A00D294C6C
:101840002948C3F89C4DC3F8A00D284CC3F89C2D23
:101850002748284AC3F8A04DC3F89C0DC3F8A02D13
:1018600002F5A022244C0C322448C3F89C4DC3F846
:10187000A02D234AC3F89C0D224CC3F8A02D02F1E1
:101880004062C3F89C4D2048C3F8A02D0C32C3F829
:101890009C0DC3F8A02D00BF00BF00BF00BF00BF5C
:1018A0000122C3F8942DBFF34F8FBFF36F8FC3F89E
:1018B000501FBFF34F8FBFF36F8FD3F8142D5DF818
:1018C000044B42F44032C3F8142D70473F0000101F
:1018D0002500080709001000C05A0020130020004E
:1018E0002100020714000020250008130900001041
:1018F0001600202027000B1317000040180000607E
:101900002F000B07190000701A000080F0B4154A70
:1019100040274FF480314FF480564FF400554FF478
:10192000404443F24200136913F0020F0ED113F446
:10193000005F0FD013F4805F0ED0002BF3DA13F4A6
:10194000803F0BD15B060BD5F0BC704794615161B1
:101950009061E8E75561E6E75661E4E79161E2E707
:101960005761E0E700800D403F4A03203F49F3EE16
:10197000095AD2F880304FF0000C9FED3D6A23F0F9
:1019800001039FED3C5A30B4C2F88030C2F8900099
:10199000D1F8E010384DCBB2384C39482B6007EE07
:1019A000903A0B0DC1F30B21F8EEE77A06EE903A70
:1019B00007EE101A334BB8EEC77A2160F8EEE66AEC
:1019C000314937EEC66A37EEC55A76EEC76A77EE0A
:1019D000E57A26EE266AC3ED006A25EE265AD2F88D
:1019E000803067EEA64AC0ED007AC6EE275A274837
:1019F00085EE276AC4EEA76A75EE875AFCEEE55AB3
:101A000036EE076A15EE904ABCEEC66A43EA045306
:101A100076EE877AC2F8803016EE103AD2F890410E
:101A2000FCEEE77A01EA0341214317EE903AC2F84F
:101A30009011C3F30B03D2F890110B431449C2F871
:101A40009031D2F8803043F00203C2F88030114B5D
:101A500080F840C0C1F840314FF0E023012230BC93
:101A6000C3F80821704700BF00810D4000441F40AB
:101A70000000AA420000B4422C5A0020285A00203C
:101A8000305A0020345A00200000FF0F00E400E02C
:101A900000240020BD800000314B40F6617210B57B
:101AA000C3F8202140F2044400F0CEF82D4A2E491C
:101AB000D2F880302D4843F00303C2F880302C4B1D
:101AC000C1F8604102681A4203D1D1F8A8319A07DF
:101AD0001BD0254A4FF00041244B5963D2F84031C6
:101AE00043F00203C2F84031D2F840319B07FBD4E7
:101AF0004FF400304FF0E0211C4B4FF00042C1F892
:101B00008C0219209A6300F0ABF8184A4FF080401D
:101B1000154C002190630A20164B11604FF420727F
:101B2000C4F8A801184600F087F84FF48002034675
:101B30004FF4810040F243111860C4F858311A6420
:101B40000D4B0E4AC4F84811C3F804224FF0E022AE
:101B50004FF400310123C2F80C11C4F8403110BD1C
:101B600000800D4000C00F4000002E4000900D404E
:101B7000001C1E000000002000240020A5820000A0
:101B800008B50E4B1B6E9B0700D4FBBE72B60C4B08
:101B900000200C4AC3F8400103F160430A49A3F551
:101BA0005F2311649D46BFF34F8F4FF40013074826
:101BB000074ADB6902609B68984700BF00441F40EA
:101BC00000002E4000C00A400300200000802020BA
:101BD000000012EB104BA020104AD96E41F44031A6
:101BE00010B4D96640F23764D96E41F44071D966B9
:101BF00054649064936C1B06FCD4094A40F237612C
:101C0000A02351649364936C13F08003FBD1054AC5
:101C100013705DF8044B704700C00F4000400C404B
:101C200000800C40925A0020F8B500BFF8BC08BCF8
:101C30009E467047000000005FF800F0C5AB000052
:101C40005FF800F075AC00005FF800F0158A000046
:101C50005FF800F0C57400005FF800F04D7D0000F3
:101C60005FF800F0B57700005FF800F035930000F2
:101C7000450000000505000071070000B1080000E4
:101C80003535000031460000ED580000517200006B
:101C900080C00F4000000003190000001000000089
:101CA000E8841F4001000000FF000000FF0000006A
:101CB00000000000000000001800000010000000FC
:101CC000E4841F4001000000FF000000FF0000004E
:101CD00000000000000000001F000000195E00006E
:101CE00070C00F40000C0000110000001100000047
:101CF000E0841F40020000002400000012000000E9
:101D0000E0841F40010000001000000011000000EE
:101D1000DC841F40020000002500000012000000CB
:101D2000DC841F40010000001E0000000D5E00006A
:101D300070C00F40C000000012000000130000003F
:101D4000D0841F4001000000FF000000FF000000E1
:101D5000000000000000000013000000130000005D
:101D6000CC841F4001000000FF000000FF000000C5
:101D700000000000000000001C000000015E0000E8
:101D80001603550053004200200053006500720006
:101D9000690061006C0000001803540065006500D4
:101DA0006E00730079006400750069006E006F00BA
:101DB0000403090409026200030100C032080B0099
:101DC00002020201000904000001020201000524D0
:101DD0000010010524010101042402060524060067
:101DE000010705820310001009040100020A000027
:101DF00000070503024000000705840240000009B7
:101E000004020002FF6AFF0007058102400001078B
:101E1000050102400001000009026200030100C048
:101E200032080B0002020201000904000001020254
:101E3000010005240010010524010101042402060B
:101E400005240600010705820310000509040100AE
:101E5000020A0000000705030200020007058402D1
:101E60000002000904020002FF6AC70007058102A0
:101E70000002010705010200020100000A0600023B
:081E8000EF0201400100000027
:101E8800000000000000000000000000000000004A
:101E9800000000000000000000000000000000003A
:101EA8000548064B1B1AD90F01EBA301491002D0B4
:101EB800034B03B118477047C0260020C0260020F6
:101EC8000000000008B5054B1BB105490548AFF3F4
:101ED8000080BDE80840FFF7E3BF00BF0000000036
:101EE800D8590020000401600F4B1B78032B02D83F
:101EF8000E4AD25C1AB90E4B00221A70704710B500
:101F08000C4C00220C4994F800C00C4831F81C1005
:101F180000EB031006F002FD094B054901201A6881
:101F2800084B08701A6010BD865A0020CC54002057
:101F3800885A0020875A002014080020D454002012
:101F4800605A0020D05400202DE9F04F4FF00008CF
:101F580085B0654E4746414607EB470500232D01EE
:101F680003EB4302013305EB8202042B06EB020468
:101F7800B15261602172F3D10137042FECD10546CB
:101F880000245A4F4FF00109064601E0082C0BD0F7
:101F98003389E0B214360134002BF7D000F0A2FEEA
:101FA800082C07F80090F3D10024012601E0072C43
:101FB8000BD0B5F8A830E0B206350134002BF6D0C6
:101FC80000F0A8FE072C3E54F3D1494C0020474BA3
:101FD8000021274601941C46464D474A14F8013B08
:101FE800CDF808809046454EDFF83491DFF834A1EB
:101FF80005F8010B83B93B70414B0137103609F1E5
:1020080001099D4238D018F8010F002114F8013B4E
:1020180005F8010B002BEED007F09CFB99F800B0F7
:10202800384A3046594606F0E7FB03460122304657
:102038004FF40071002B3ED03A7006F0F9FB3046A1
:10204800802106F0F7FB0C212F4808F08BFF59463A
:1020580000231022504607F0AFF818212B4808F04B
:1020680081FF00230A2215F8011C504607F0A4F846
:10207800504607F093F8BFE70020254B254D012275
:102088001870254B28701870DDE9014805E0052B0C
:1020980090464FF001001A4621D0531C14F8011B3A
:1020A800DBB20029F3D008B185F8008005B0BDE89F
:1020B800F04FFFF719BF3B700C211348039308F04A
:1020C80051FF039B59461022504607F075F8152119
:1020D800124808F047FF504607F060F88CE70423E1
:1020E8002B7005B0BDE8F08F18550020C8540020AB
:1020F800CC5400201455002028070020D454002078
:1021080018550020381800201C0800202C08002032
:10211800875A0020865A0020885A0020D0080020BC
:102128002C0700202818002038B50C4B1C7824B147
:102138000B4D2B78032B02D90024204638BD094AC1
:10214800D05C07F0F5FA0028F7D0074B287803EBA6
:102158000010BDE8384006F01BBC00BF885A0020BC
:10216800865A002014550020D454002038B5124C4B
:102178002378032B02D8114AD25C02B938BD104823
:1021880000EB031006F058FB0E4B1D6872B60E4AA2
:102198002378127803EB43030C4902EB42021B013C
:1021A80003EB8203CA18C85201235560137262B642
:1021B800074B00221A7038BD865A0020CC540020E4
:1021C800D4540020605A0020875A00201855002057
:1021D800885A0020214A13780133DBB2032B01D837
:1021E8001370704730B54FF0000C1D4C82F800C0DA
:1021F8002278531CDBB2032B237016D802321949FC
:10220800E6466546D2B2194405E0052B96464FF0DE
:1022180001051A4609D0531C11F8010BDBB200283E
:10222800F3D00DB184F800E030BD00250D4901223E
:10223800257005E0052B94464FF001051A460AD093
:10224800531C11F8010BDBB20028F3D0002DEBD0A2
:1022580084F800C030BD0423237030BD875A0020A5
:10226800865A0020CC54002070B5274D2B78032BBC
:102278000FD8264B1B78002B37D0FFF755FF0446A5
:10228800002837D1224B234A1B6812689B1A0F2B50
:1022980002D80024204670BD1A211F4808F062FEAB
:1022A8001E4E23460A2229781D4806F085FF09217B
:1022B8001C4808F057FE23460A223178184806F0D1
:1022C8007BFF174806F06AFF2B78327803EB43034D
:1022D800154902EB42021B0103EB82030B441C72FB
:1022E800FFF778FF2B78032BD3D80024FFF7FCFDEA
:1022F800204670BDFFF73AFFFFF76CFF2B78032BE2
:10230800C8D8FFF7F1FDC5E7865A0020885A002093
:10231800605A0020D054002048080020875A002026
:1023280028180020640800201855002040EA0103FE
:10233800032B02D99FED100A704710B472B600EB58
:1023480040030E4C01EB41011B0103EB8103E21832
:10235800E15A536809B2137ADBB262B633B1084B5B
:102368005DF8044B03EB001006F08EBA9FED020AED
:102378005DF8044B704700BF0000000018550020AE
:10238800D454002038B5054C04F1400520461034DB
:1023980006F02AFAA542F9D138BD00BFD45400206E
:1023A800224B2DE9F0411C78002C33D0204B1C78AF
:1023B80084B3204B204D1E682B68F31AB3F57A7F3F
:1023C8002BD31E481E4F06F081F9DFF884801B4886
:1023D80087ED000A06F092F9184888ED000A06F021
:1023E80081F9DFED186AD7ED007A80EE267A164B70
:1023F800F4EE677AF1EE10FA83ED007A11D6D8ED93
:10240800007AB4EE677AF1EE10FA0AD60F4B012281
:102418002E601A702046BDE8F08100242046BDE8F1
:10242800F0810023094A1C461370F3E7855A0020FF
:10243800835A0020605A00206854002070540020FD
:102448006C54002000007A4464540020845A002010
:10245800C45400203A4A90F8D63030B5137085B08D
:10246800002B6AD07621374D374A3848297006F054
:1024780009F90446002841D1354B212135481C7003
:1024880008F070FD234610222978334806F094FEA0
:102498000F21324808F066FD2F4806F07FFE0F2115
:1024A8002F4808F05FFD294806F09CF923461022C2
:1024B8000146294806F080FE274806F06FFE2421D1
:1024C800284808F04FFD244806F068FE17212648E2
:1024D80008F048FD204806F061FE1221234808F064
:1024E80041FD1D4806F05AFE1221214808F03AFD28
:1024F800194805B0BDE8304006F050BE012300245D
:102508000521134A114802910321CDE900341370C3
:102518001A4605F0D9FD1821164808F023FD234670
:10252800102229780C4806F047FE0B4806F036FEC4
:1025380005B0BDE83040FFF733BF19210E48D5E795
:10254800855A00208A200020381800207054002066
:10255800835A002068070020281800208C070020D4
:102568009C070020AC070020D4070020EC070020BF
:10257800000800204C07002030070020044B1B787F
:102588001BB1044B93ED000A70479FED030A704797
:10259800845A00206C540020339388C3044B1B7862
:1025A8001BB1044B93ED000A70479FED030A704777
:1025B800845A0020C454002000000000044B1B78FB
:1025C8001BB1044B93ED000A70479FED030A704757
:1025D800845A00206454002000000000024B187840
:1025E80008B1024B18787047855A0020835A00209A
:1025F80010B5054C204605F01DFD2046034A044948
:10260800BDE8104008F062BE705400200C1C002089
:10261800C561000000B5B9B00146E022684607F080
:10262800DDFA684600F03EFA0346E02268460021DB
:10263800379307F0BBFA012039B05DF804FB00BFFF
:1026480070B5E022002104460AF0FCF9194949F264
:102658000353224604F1A00621600025A3802346E7
:10266800DFF85CE0DFF85CC0134814491D811433BF
:1026780043F808EC43F804CC18605960B342F5D12C
:1026880004F12A05002364200121A2F8A8300632AB
:10269800A2F8A40082F8A61082F8A730AA42F4D1C2
:1026A8000323204684F8D33000F0FCF9C4F8DC009A
:1026B80070BD00BF4D53534FC696003400081D46E9
:1026C800BEC5C23A010A6F3970B50024B8B00646D3
:1026D80005462046013407F0C7F805F8010BE02C41
:1026E800F7D1124B32689A4202D13379032B14D0B6
:1026F8003046FFF7A5FFE0223146684607F06EFA3C
:10270800684600F0CFF90346E02268460021379377
:1027180007F04CFA002038B070BD304600F0C2F91E
:10272800D6F8DC309842E3D10120F4E74D53534FFB
:1027380007F076B82DE9F84F464E90F8D23033704E
:10274800002B7ED00323DFF84091434F04464FF01F
:102758000A080220DFF834A100213B708AF8000043
:1027680089F8008006F0F6FF0021387806F0F2FFBD
:10277800182007F0CDFA0546384A99F90010DFF815
:1027880010B106F021F92846CBF8005006F05CF9A4
:102798000346002845D094F8D3100124304DDBF8C7
:1027A80000002C7006F0A0F92146DBF8000006F0C6
:1027B800DBF90021DBF8000006F018F92021294890
:1027C80008F0D0FB0023424699F80010264806F08E
:1027D800F3FC0821254808F0C5FB002342469AF877
:1027E8000010214806F0E8FC0921214808F0BAFB4E
:1027F8000023424639781C4806F0DEFC1A4806F0E9
:10280800CDFC3378C3B12B78B3B1DBF8000098B1B5
:1028180006F0D2F9174A1849184B12680C701A605A
:102828000DE00F4A1D211648137008F09BFB0E4857
:10283800BDE8F84F06F0B2BC0F4B00221A70BDE895
:10284800F88F1B210F4808F08DFB0748BDE8F84FAB
:1028580006F0A4BC8D5A00208D200020D817002037
:102868008A5A00208C08002028180020B008002070
:10287800BC080020605A00208C5A0020FC5500201B
:10288800C8080020700800208B2000208C20002021
:10289800F45500200B4B10B51C7854B10A4B1C782A
:1028A8003CB10A4B1C7824B1094B187806F040FF5C
:1028B80008B9204610BD074BBDE81040186806F05F
:1028C800A5B900BF8C5A00208D5A00208A5A0020D2
:1028D8008C200020F455002038B5114B1B7883B1AB
:1028E800104B1C786CB1104D286850B106F024F9D3
:1028F8000E4B187030B100240D4900220D4B0C709E
:102908001A7038BD286806F0BFF90B4B286883EDAC
:10291800000A06F099F9094B83ED000AECE700BFBD
:102928008D5A00208A5A0020F45500208E5A002023
:102938008B5A00208C5A0020F0550020F8550020B2
:10294800F8B5244D2B788BB1234E337873B1234FD0
:102958003C7824B3FFF79EFF044600282CD1204979
:10296800204A0B6810681B1AC82B02D8002420467E
:10297800F8BD1D482B783C700470002BF6D03378D6
:10298800002BF3D0194B18680028EFD006F014F983
:1029980013490120134A0B6838701360E7E7134B9B
:1029A80018680028E2D006F007F90D4A01210D4BFE
:1029B800126839701A60DAE7FFF78EFF2B7833B1A7
:1029C800337823B1094A106808B11C46EBE70023A5
:1029D8003B70CCE78D5A00208A5A00208C5A002080
:1029E800605A0020FC5500208B5A0020F455002026
:1029F800044B1B781BB1044B93ED000A70479FED05
:102A0800030A70478B5A0020F0550020339388C37F
:102A1800024B187808B1024B187870478D5A00207D
:102A28008A5A0020014B1878704700BF8E5A002040
:102A380010EE10CA0146006808225FFA8CF310B441
:102A48004340174CD8074CBF84EA53035B08013A4C
:102A5800F8D1CCF3072208205A40114BD4074CBFB9
:102A680083EA520252080138F8D1CCF30743082010
:102A780053400B4ADC074CBF82EA53035B0801381A
:102A8800F8D10822064C83EA1C60C3074CBF84EACD
:102A980050004008013AF8D15DF8044B08607047CF
:102AA8002083B8ED2DE9F0410446006882B0082281
:102AB800C3B27049DB43DF074CBF81EA53035B08AD
:102AC800013AF8D1C0F3072208215A40694BD607CA
:102AD8004CBF83EA520252080139F8D1C0F30743C8
:102AE80008215340634ADD074CBF82EA53035B0861
:102AF8000139F8D183EA106308225E49DF074CBF29
:102B080081EA53035B08013AF8D122790821594830
:102B18005340DE074CBF80EA53035B080139F8D104
:102B28006079082253495840C5074CBF81EA5000D4
:102B38004008013AF8D1254604F1A006A0464D4FB9
:102B4800B8F808100822CBB25840C3074CBF87EA30
:102B580050004008013AF8D180EA11210822CB0739
:102B68004CBF87EA51014908013AF8D198ED030AA8
:102B780001A80191FFF75CFF034698ED040A01A83C
:102B880008F114080193FFF753FF034698ED000A74
:102B980001A80193FFF74CFF034698ED010A01A82D
:102BA8000193FFF745FF4645CAD104F12A0C314E7F
:102BB800B5F8A8100823CAB25040C7074CBF86EA28
:102BC80050004008013BF8D180EA11220823D107C0
:102BD8004CBF86EA52025208013BF8D1B5F8AA0068
:102BE8000821C3B25340DF074CBF86EA53035B0892
:102BF8000139F8D183EA10230822D9074CBF86EAA5
:102C080053035B08013AF8D195F8AC000822584004
:102C1800C7074CBF86EA50004008013AF8D106358C
:102C2800AC45C5D194F8D220082312494240D007B8
:102C38004CBF81EA52025208013BF8D194F8D330D4
:102C480008210C485340DA074CBF80EA53035B085D
:102C58000139F8D194F8D600082206495840C3072C
:102C68004CBF81EA50004008013AF8D1C04302B095
:102C7800BDE8F0812083B8ED003818BF0120704707
:102C880000F00100704700BFC0F34000704700BF6C
:102C9800C0F38000704700BFC0F3C000704700BF9A
:102CA800C0F30010704700BFC0F34010704700BF6A
:102CB800C0F38010704700BFC009704710F0C10F03
:102CC80014BF01200020704782B08DF804008DF8F1
:102CD80005108DF806208DF807309DED010A02B029
:102CE800704700BF072805D801D103207047024B61
:102CF800185C7047FF20704734040020072805D867
:102D080001D102207047024B185C7047FF207047C2
:102D18003C040020062805D801D103207047024B47
:102D2800185C7047FF20704744040020062805D827
:102D380001D100207047024B185C7047FF20704794
:102D48006C040020013807288CBF00200120704740
:102D5800013806288CBF00200120704700207047EA
:102D6800034B186810B103681B681847704700BF09
:102D7800605400202DE9F04100F5005090B0574C08
:102D88009646574B0094C0F810191B6A5548C3F370
:102D980001230468403304F080746B4413F8406CDA
:102DA800514B03FB06F60368B6FBF1F2B6FBF2F5EE
:102DB80043F0A0434D1B03600368DF01FCD5052ADF
:102DC8004FF0000C2AD96046831C0130B2FBF3F7A0
:102DD800192F07FB03F3F7D84FF00108B6FBF3F3FD
:102DE800CB1A002BB8BF5B42AB420BDBA7F10C033D
:102DF80018BF4FF00008062B0AD8B8F1000F07D00B
:102E08008446E1E71D46A7F10C038446062BF4D956
:102E1800052FD9D80CF10103B2FBF3F2B5F5967F73
:102E2800A2F105024CDC142A4AD802EB42022F4FC9
:102E38006E46DFF8B08002F14003BEF1020F0DEBE1
:102E480003050FCF0FC60FCF0FC60FCF0FC697E8DA
:102E58000F0007C626F8023B4FEA1343337015F8F4
:102E68003F3C15F83E2C4FEAC34315F8401C4FEA87
:102E7800024203F4601301F0070102F4E02243EA7E
:102E8800020343EA010343F4800343EA0C6343F477
:102E98008043C8F80430D8F8043014BF23F008037E
:102EA80043F00803C8F804303CB90E4A136823F00D
:102EB800805313601368DB01FCD410B0BDE8F081C7
:102EC800002CFAD1074A136823F080531360136863
:102ED800D901FCD410B0BDE8F08100BF3C18500007
:102EE80000C00F4000001D4040420F00A00300201A
:102EF80000207047002070470820704710490B6871
:102F0800486B0A68496B02F07F02C1F30361013222
:102F18000431B2EB410F10D303F07F03C0F3036019
:102F2800053B0130A3EB4003DBB2054A106800F013
:102F38007F000130C01AC0B270470023F5E700BF18
:102F480000001D40634A2DE9F0411468136804F03D
:102F5800807443F0A04313601368DD01FCD5116849
:102F68000023DFF878C121F000515B4F594E116002
:102F7800194653629362126803EB0C02DD190133A0
:102F88001201AD00D160DBB291605160116029601F
:102F9800326802F07F0201329342EDD3B1643161AD
:102FA800F26A336BF26233633368002849D1DFF881
:102FB8002C810546474E484F19E0336803F07F03DC
:102FC8000133B0EB930F34BF4FF080634FF08C6345
:102FD8001360736BC3F300439B070B6033680135C1
:102FE80003F07F03EDB2013328469D421ED23368B9
:102FF80005EB0802E91903F07F0312018900013388
:10300800B0EB530FD9D34FF00063136033689A00C5
:1030180003D5FFF773FFA842E0D801231F2D03FA59
:1030280005F34CD8B26A1343B362D7E73CB9294ACF
:10303800136823F0805313601368DB01FCD4BDE8E8
:10304800F08143F000533360356815F000553ED0E9
:10305800FFF754FF3368054603F07F0301338342CB
:10306800E4D91E4F4FF00066DFF868800DE0D8F80D
:1030780028201343C8F82830D8F80030013503F069
:103088007F03EDB201339D42D0D2EB191B011E60C4
:10309800D8F80030990003D5FFF730FF8542EBD30D
:1030A80001231F2D03FA05F3E1D9A5F1200101231E
:1030B800D8F824208B401343C8F82430DCE7A5F166
:1030C80020010123726A8B401343736286E73368D9
:1030D800C7E700BF00001D402042071008D00104C8
:1030E80070B5584B82B05849002201930B6AC3F35C
:1030F800012308336B4413F8043CC0E90122C0E9FA
:103108000322002B00F0858000F500554E4924204D
:103118004E4B01244E4A0226C5F80C091220C3F86A
:10312800D0208A6E4B4B42F470328A6641F2B0016D
:1031380085F81549484A494CC3F81C01C3F80C13D3
:10314800E664C3F82001C3F81013136823F00043A2
:103158001360136843F0A04313601368DC01FCD5C7
:1031680053683D4943F008035360136843F08043B4
:1031780013600B68D802FCD40B68374A43F000731D
:103188000B6013689901FCD4334C2368DA01FCD531
:103198002368002043F400332360236843F480331A
:1031A8002360236843F480532360236843F4005367
:1031B8002360236843F480032360236843F40023D7
:1031C8002360236823F408432360636B43F4E023FC
:1031D8006363236843F400132360236843F0806328
:1031E8002360FFF7AFFE23681B4A23F08053236058
:1031F8001368DB01FCD4D5F80C290121184B03EB2B
:10320800521302F01F029B0001FA02F21A6002B088
:1032180070BD0B6A134A23F47F7343F480730B6207
:103228001368002B3FF470AF0B4A00F500551C687B
:1032380018465268D5F81019C2F3C00263685200E4
:10324800984763E73C18500000C00F400024002056
:10325800E10E000000801F4000001D4000841F4058
:1032680040380038605400202DE9F0470C464C22C5
:103278000146B54806F0B2FCE0222146B34806F004
:10328800ADFC1621B24807F06DFEB24805F086FF86
:10329800B14CB248FFF724FF0022B149AF48FFF70D
:1032A80069FD236843F0A04323602368DF01FCD550
:1032B80000202568FFF746FEE26A236BAE00E26253
:1032C8002363236823F07F032360236843F00F03FD
:1032D800236000F15082A04C236823F080532360C0
:1032E8002368DD01FCD40120FFF72CFE2368980039
:1032F8000AD5A36A990607D4A36A23F0FF03A36239
:10330800A36A43F02003A362934D964A2B6896491B
:1033180013F00059C2F8041840F0AB811A21934801
:1033280007F020FE4C462B68914E924D924F04EBCD
:1033380005084FEA0818D8F80030C3F303630E2BCA
:1033480000F29F80DFE813F0830171015F019D00A7
:1033580044019D0032019D00EE00DC00CA009D0082
:103368000F009D00B8000421844807F0FBFD0023EE
:1033780049460A22774805F01FFF1D21804807F0BB
:10338800F1FDD8F8003010219B0240F1F8817D480A
:1033980008EB070A07F0E6FDD8F80890D8F80430DB
:1033A80023F060480721784807F0DCFD002310224D
:1033B8004146684805F000FF0121744807F0D2FD36
:1033C8000A21734807F0CEFD002310224FEA196145
:1033D800604805F0F1FE01216E4807F0C3FD0023A7
:1033E8001022C9F307415B4805F0E6FE0121694850
:1033F80007F0B8FD00231022C9F30721554805F04E
:10340800DBFE0121634807F0ADFD002310225FFABF
:1034180089F1504805F0D0FE5AF8068001215D4830
:1034280007F0A0FD002310224FEA1861494805F073
:10343800C3FE0121574807F095FD00231022C8F369
:103448000741444805F0B8FE0121524807F08AFDBB
:1034580000231022C8F307213E4805F0ADFE0121E4
:103468004C4807F07FFD00235FFA88F110223948A5
:1034780005F0A2FE0121454807F074FD354805F026
:103488008DFE354B01341B68E4B203F07F03A1467F
:1034980001339C42FFF44BAF16213F4807F062FD11
:1034A8002A4900230A2249792A4805F085FE294835
:1034B800BDE8F04705F072BE0421304807F052FD20
:1034C800494600230A22234805F076FE1121334895
:1034D80007F048FD1F4805F061FED2E704212748A0
:1034E80007F040FD494600230A221A4805F064FE09
:1034F80011212B4807F036FD164805F04FFEC0E7AE
:1035080004211E4807F02EFD494600230A221148CF
:1035180005F052FE0F21234807F024FD0D4805F061
:103528003DFEAEE70421154807F01CFD494600237F
:103538000A22084805F040FE12211B4807F012FD38
:10354800044805F02BFE9CE70C5400202C53002067
:10355800880400202818002000001D40142A00209C
:1035680090D00300144A0020A52100005406002032
:103578008C001D4008D0010480FFE2BF2405002014
:10358800E4050020040600202C0600204015002039
:1035980034060020780D00200C050020400600208D
:1035A8009C050020D4050020C005002004217A488D
:1035B80007F0D8FC494600230A22784805F0FCFDAC
:1035C8001121774807F0CEFC744805F0E7FD58E76D
:1035D8000421714807F0C6FC0A22494600236F48B7
:1035E80005F0EAFD0F216F4807F0BCFCD8F8003061
:1035F80011219A024CBF6C486C4807F0B3FC67482D
:1036080005F0CCFD3DE70421634807F0ABFC4946D3
:1036180000230A22614805F0CFFD0E21644807F017
:10362800A1FC5E4805F0BAFD2BE704215A4807F0D3
:1036380099FC494600230A22584805F0BDFD0E2191
:103648005C4807F08FFC554805F0A8FD19E70421F0
:10365800514807F087FC494600230A224F4805F0E5
:10366800ABFD1221544807F07DFC4C4805F096FD4F
:1036780007E71121514807F075FCAB6A9A0600F17B
:10368800F28112214E4807F06DFC444805F086FD92
:1036980016214C4807F066FC4B4A1468516B1368B6
:1036A800526B03F07F03C2F3036201330432B3EBBE
:1036B800420FC0F0E08104F07F04C1F30361053CD0
:1036C8000131A4EB4104E5B23F4E3448316801F0C2
:1036D8007F010131491BC9B22029A8BF202105F06B
:1036E80051FD2E4805F05AFD1621384807F03AFCDE
:1036F8003368726B03F07F03C2F303620133043251
:10370800B3EB420F01D200242546002321460A22AA
:10371800224805F051FD214805F040FD2A4B1C6860
:103728001B6804F07F0403F07F0301340133641B3A
:10373800E4B2A3427FF6B0AE254D264E264F04EBE9
:1037480005084FEA0818D8F80030C3F303630E2BB6
:1037580000F2D380DFE813F03F012D011B01D100F7
:103768000001D1006301D10051017501EE00D100C3
:103778004400D100DC000120FFF7E4FBABE517486B
:1037880008EB070A07F0EEFBD8F80890D8F80430E1
:10379800C3F38A4806E600BF240500202818002045
:1037A8008805002040050020500500206405002001
:1037B80078050020B00500202C050020A00400207A
:1037C800C8040020DC04002000001D40F404002090
:1037D80008D001048C001D4080FFE2BF18060020BD
:1037E8000421AC4807F0BEFB00230A222146AA4860
:1037F80005F0E2FC1D21A94807F0B4FBD8F8003019
:103808001021980240F13A81A54807F0ABFBD8F89F
:103818000890D8F80430B84423F0604A0721A1483A
:1038280007F0A0FB0023102251469B4805F0C4FC7A
:1038380001219D4807F096FB0A219C4807F092FB5E
:10384800002310224FEA1961934805F0B5FC0121C5
:10385800974807F087FB00231022C9F307418E48D9
:1038680005F0AAFC0121924807F07CFB00231022F6
:10387800C9F30721884805F09FFC01218C4807F00F
:1038880071FB002310225FFA89F1834805F094FC4C
:1038980058F806800121864807F064FB00231022AF
:1038A8004FEA18617C4805F087FC0121804807F041
:1038B80059FB00231022C8F30741774805F07CFC28
:1038C80001217B4807F04EFB00231022C8F3072193
:1038D800714805F071FC0121754807F043FB00238E
:1038E8005FFA88F110226C4805F066FC01216E48E9
:1038F80007F038FB684805F051FC6E4B01341B6833
:10390800E4B203F07F0301339C42FFF418AFC3E530
:103918000421604807F026FB00230A2221465E485E
:1039280005F04AFC1121644807F01CFB5A4805F0D1
:1039380035FCE2E70421574807F014FB00230A226C
:103948002146554805F038FC11215C4807F00AFB70
:10395800514805F023FCD0E704214E4807F002FB4C
:103968000A22002321464C4805F026FC0F21544822
:1039780007F0F8FAD8F8003011219B024CBF5148E3
:10398800514807F0EFFA444805F008FCB5E7042170
:10399800404807F0E7FA00230A2221463E4805F08E
:1039A8000BFC0E21494807F0DDFA3B4805F0F6FB11
:1039B800A3E70421374807F0D5FA00230A22214655
:1039C800354805F0F9FB0E21414807F0CBFA32489B
:1039D80005F0E4FB91E704212E4807F0C3FA002321
:1039E8000A2221462C4805F0E7FB1221394807F046
:1039F800B9FA294805F0D2FB7FE70421254807F0EA
:103A0800B1FA00230A222146234805F0D5FB1221EA
:103A1800314807F0A7FA204805F0C0FB6DE70421FC
:103A28001C4807F09FFA00230A2221461A4805F08D
:103A3800C3FB1121294807F095FA174805F0AEFB9A
:103A48005BE70421134807F08DFA00230A22214678
:103A5800114805F0B1FB0F21214807F083FA0E4801
:103A680005F09CFB49E711211E4807F07BFA0A483C
:103A780005F094FB0CE60024254625E61A4807F0D5
:103A880071FAD8F80890D8F80430B844C3F38A4AD1
:103A9800C4E600BF2405002028180020E405002003
:103AA800040600202C0600204015002034060020C3
:103AB800780D002000001D40400600209C050020D5
:103AC80040050020500500206405002078050020EE
:103AD800B00500202C050020C00500208805002026
:103AE800D4050020B4040020180600201F2910B4B3
:103AF80022D8012318488B400363184B4FF0006409
:103B0800D0790B441B011C60E8B1117A10680905D3
:103B180020F0604041F4C0015860D0685DF8044B63
:103B280000BA9860106900BAD860D27A41EA0242B5
:103B380042F040621A607047A1F120040123064850
:103B4800A340C362D9E714680548117A00EA8440A3
:103B580009055860E1E700BF00001D4008D00104D6
:103B68000000FC1F3B4B1B6A2DE9F04113F0200EAF
:103B780086B066D100F580540646B4F81E3B9BB269
:103B8800102B62D0B4F81C8B0D461A27086808F071
:103B98000F084968AA68EC46EB6807FB0848ACE8D8
:103BA8000F0028691822696988F830EB41F6303E21
:103BB800B4F81C3B03F00F0307FB034383F8312BD6
:103BC800B4F81C3B03F00F03ACE8030007FB0366E3
:103BD800EC46B644BCE80F00CEF80200CEF806105A
:103BE800CEF80A20CEF80E30BCE80300CEF812005A
:103BF800CEF81610B4F81C2BB4F81A3B92B29BB24C
:103C080083F010039A4206D1B4F81A3B013303F04B
:103C18001F03A4F81A3BB4F81C3B013303F01F033D
:103C2800A4F81C3BB4F81E3B9BB20F2B09D8B4F880
:103C38001E3B012003449BB2A4F81E3B06B0BDE81E
:103C4800F081012006B0BDE8F081704606B0BDE8FD
:103C5800F08100BF00001D408B7D70B50D4686B019
:103C680004463F4E002B3CD1336813F0005C25D04E
:103C7800FFF744F93368844603F07F030133984221
:103C88001ED23849364807E003685FFA82FC03F021
:103C98007F0301339C4513D20CEB01030CF10102A5
:103CA8001B011B68C3F30363082BEDD120462A468A
:103CB8006146FFF71BFF012006B070BD3368E0E7DF
:103CC8000FCDEC46FF26ACE80F0095E803008CE822
:103CD8000300694620468DF81460FFF743FF06B0DD
:103CE80070BD306810F0005030D0FFF707F9336826
:103CF80003F07F030133834224D91A49184E05E0A3
:103D0800336803F07F03013398421BD24318421CE7
:103D180084461B01D0B21A681201F1D51B68C3F39F
:103D28000363082B14D06E460FCD0FC695E8030029
:103D380086E80300694620468DF814C0FFF712FF95
:103D480006B070BD084B4FF0FF3CE7E73368D4E797
:103D580020462A465FFA8CF1FFF7C8FE0120ABE740
:103D680000001D4008D0010470001D402DE9F043FB
:103D7800002489B08646A446CDE900448DF8011098
:103D8800FF240DF102018DF8000009E012F80C0083
:103D98000CF1010C0131BCF1060F01F8010C0AD03D
:103DA8005FFA8CF08342F1D80CF1010C0C700131F0
:103DB800BCF1060FF4D1134B02AD134E4FF00109BD
:103DC8005B790DF11304DFF84880EC460DF11B0711
:103DD80043EA08080FCE0FC596E803008DF80F9048
:103DE800CDF8088085E8030001E01CF801EF04F82D
:103DF80001EFBC42F9D102A90448FFF72DFF09B031
:103E0800BDE8F0832C530020E0030020142A002092
:103E18000001FF1870B50446007884B0431E082BD3
:103E280000F2F780DFE803F01D3B59718392A0AEE2
:103E38000500204601F010FB01462046009101F0E4
:103E48000DFB0099024602A801F038FF9DF80F30DB
:103E58000DF109029DF808100920FFF787FF04B04B
:103E680070BD204601F0DAFA01462046019101F0C2
:103E7800DBFA02462046009201F0DCFA034602A86B
:103E8800DDE9002101F0D2FD9DF80F300DF10902A6
:103E98009DF808100120FFF769FF04B070BD2046A7
:103EA80001F0CAFA0546204601F0C8FA0646A37989
:103EB8006279E0782179FEF707FF3246294602A8A1
:103EC80001F03AFF9DF80F300DF109029DF8081036
:103ED8000220FFF74BFF04B070BD204601F0B0FA96
:103EE80001462046009101F0ADFA0099024602A869
:103EF80001F054FE9DF80F300DF109029DF80810ED
:103F08000320FFF733FF04B070BD204601F09EFA8E
:103F1800014602A801F06CFE9DF80F300DF1090270
:103F28009DF808100420FFF721FF04B070BD20465B
:103F380001F08EFA034620461C4601F08BFA042C49
:103F480060D8DFE804F0574E455F370002A801F05B
:103F58004BFF9DF80F300DF109029DF8081006205F
:103F6800FFF704FF04B070BD02A801F05DFF9DF8E3
:103F78000F300DF109029DF808100720FFF7F6FE33
:103F880004B070BD204601F067FA01462046009152
:103F980001F064FA0099024602A801F04DFE9DF86E
:103FA8000F300DF109029DF808100820FFF7DEFE1A
:103FB80004B070BD02A801F07DFF9DF808109DF8BF
:103FC8000F300DF109020520FFF7D0FE04B070BDD7
:103FD800014602A801F0B4FF9DF808109DF80F30C3
:103FE800EFE7014602A801F077FF9DF808109DF859
:103FF8000F30E6E702A801F02BFF9DF808109DF8A6
:104008000F30DEE70820002201461346CDE9020200
:10401800D7E7002302AA01218DF80830FFF7A6FE92
:104028001DE700BF30B5164B044687B00022254671
:104038000392029203CB4FF00043CDF8131055F8CA
:104048000C1BCDF80F0001A8019304F09FFE294630
:1040580001A804F0A9FEBDF80A30B3F57F4F0AD0D5
:10406800B3F56A4F01D007B030BD21460548FFF7C8
:10407800F3FD07B030BD2846FFF7CCFE07B030BDD2
:10408800F8030020142A0020164B4FF0000C2DE9ED
:10409800F041154E86B05F790C466D464FF0010829
:1040A80047EA00270DF10B0E0FCE47F0C0570FC59A
:1040B80096E803008DF80780009785E8030044FA26
:1040C8000CF30CF1010C03F00103BCF1080F0EF81E
:1040D800013FF4D169460548FFF7BEFD06B0BDE8CB
:1040E800F08100BF2C530020E0030020142A002098
:1040F80070B5002340F2535117482DED028B82B062
:10410800F0EE408AB0EE608A6C46CDE9003301F0EB
:10411800B3FB064640F265610F4801F0ADFB05466A
:10412800E4B24EB985B921464FF66960FFF7ACFF96
:1041380002B0BDEC028B70BDB0EE680A01F090F9D8
:10414800ADF80000002DEED0B0EE480A01F088F975
:10415800ADF80200E7E700BF2C53002070B500233C
:1041680082B040F2B91117486C46CDE9003301F02E
:1041780083FB06464FF4B171124801F07DFB0546FA
:10418800E4B23EB97DB921464FF68C60FFF77CFF5B
:1041980002B070BD0C4B93ED110A01F073F98DF864
:1041A8000000002DEFD0084B93ED000A01F07CF9D8
:1041B80021468DF806004FF68C60FFF765FF02B0C8
:1041C80070BD00BF2C5300200C540020F0B5002314
:1041D80040F26B4120482DED048B83B0B0EE409A3D
:1041E800F0EE608AB0EE418A6C46CDE9003301F00A
:1041F80043FB40F26C410746174801F03DFB40F293
:104208006D410646144801F037FB0546E4B2CFB9C4
:104218004EB985B921464FF6A560FFF735FF03B0C3
:10422800BDEC048BF0BDB0EE680A01F02BF98DF8F7
:104238000100002DEED0B0EE480A01F023F98DF808
:104248000200E7E7B0EE490A01F01CF98DF800001A
:10425800002EDED0E7E700BF2C53002070B5002306
:1042680040F2674117482DED028B82B0F0EE408A8C
:10427800B0EE608A6C46CDE9003301F0FDFA0646DF
:104288004FF48D610F4801F0F7FA0546E4B24EB9D4
:1042980085B921464FF6A660FFF7F6FE02B0BDECE1
:1042A800028B70BDB0EE680A01F016F9ADF8000097
:1042B800002DEED0B0EE480A01F00EF9ADF802007C
:1042C800E7E700BF2C530020F0B500236E211F48FC
:1042D8002DED048B83B0B0EE409AF0EE608AB0EE1C
:1042E800418A6C46CDE9003301F0C6FAAE21074693
:1042F800164801F0C1FAAF210646144801F0BCFA8D
:104308000546E4B2CFB94EB985B921464FF6EE60FD
:10431800FFF7BAFE03B0BDEC048BF0BDB0EE680A3F
:1043280001F0B0F88DF80100002DEED0B0EE480A8B
:1043380001F096F8ADF80200E7E7B0EE490A01F09F
:10434800A1F88DF80000002EDED0E7E72C530020FE
:10435800F0B500235E211F482DED048B83B0B0EE2D
:10436800409AF0EE608AB0EE418A6C46CDE900339F
:1043780001F082FA64210746164801F07DFA6D21A2
:104388000646144801F078FA0546E4B2CFB94EB9AA
:1043980085B921464FF6EF60FFF776FE03B0BDEC16
:1043A800048BF0BDB0EE680A01F0A0F88DF80300A8
:1043B800002DEED0B0EE480A01F0A6F88DF8060000
:1043C800E7E7B0EE490A01F091F88DF80000002EF9
:1043D800DED0E7E72C530020F0B500236C212148FC
:1043E8002DED048B83B0F0EE408AB0EE608AB0EE1B
:1043F800419A6C46CDE9003301F03EFAAB210746FD
:10440800184801F039FAAC210646164801F034FA8A
:104418000546E4B2E7B94EB99DB921464FF6F560B5
:10442800FFF732FE03B0BDEC048BF0BDB0EE680AB6
:1044380001F016F88DF80300030A8DF80430002DFA
:10444800EBD0B0EE480A01F01DF88DF80500E4E75E
:10445800B0EE490A01F066F88DF80000002EDBD0B6
:10446800E4E700BF2C5300202DE9F041002366212A
:104478002A482DED048B82B0F0EE408AB0EE609AA7
:10448800B0EE418A6C46F0EE619AE4B2CDE90033B1
:1044980001F0F2F969218046204801F0EDF96A211E
:1044A80007461E4801F0E8F9AD2106461B4801F011
:1044B800E3F90546B8F1000F27D1EFB956B98DB920
:1044C80021464FF6F660FFF7DFFD02B0BDEC048B26
:1044D800BDE8F081B0EE680A01F016F88DF8030027
:1044E800002DEDD0B0EE480A00F0BAFF8DF80500B7
:1044F800030A8DF80630E3E7B0EE490A00F0C2FF80
:104508008DF80200002EDAD0E4E7B0EE690A00F078
:10451800FBFF8DF80100002FD0D0EDE72C530020D1
:1045280000F58053D3F8003EDB0069D5374B2DE901
:10453800F04F5E6B4FF0000E41F6146941F60467C8
:10454800C6F3036641F60868F600083609E0136802
:104558005B0F052B34D00EF1010E5FFA8EF39E42ED
:1045680050D90EEB4E0500EBC50C0CF5F052136854
:104578005B0F012B13680DD05B0F022BE7D15CF8A2
:1045880007308B42E7D85CF808308B42E3D3012030
:10459800BDE8F08F13F4607FDDD06D00002304E0E8
:1045A8001468C4F3C21C6345D5D2013305EB030C70
:1045B800DBB20CF5F06C50F82C408C42F0D1E6E7F9
:1045C800136813F4607FC6D0CC446D00012405E065
:1045D8001368C3F3C21301339C42BCD22B19DCF815
:1045E80000A0013403F5F0630AEA010AE4B250F8C6
:1045F8002330DCF800B003EA0B039A45E8D1C6E79C
:10460800012070470020BDE8F08F00BF00001D406A
:1046180001EB410170B500EBC10404F5045EDEF85E
:104628000030DB0028D5DEF800305B0F012B0BD003
:10463800DEF800305B0F022B42D0DEF800305B0F53
:10464800052B1BD0002070BDDEF8004014F4607FFD
:10465800F8D000234D0005E0DEF80010C1F3C21CBD
:104668006345EFD2013305EB030CDBB20CF5046CA8
:1046780050F82C409442EFD1012070BDDEF8005074
:1046880015F4607FDED042F2141549000123254459
:1046980007E0DEF80040C4F3C21C0CF1010C6345CE
:1046A800D0D22C6804EA020CCC18013304F5046457
:1046B800DBB250F824402E683440A445E9D1DBE74A
:1046C80042F20413E3589342BCD842F20813E0586C
:1046D800904234BF0020012070BD00BF0B78632BCF
:1046E80010B5044682B0104613D003F51C6304EBE2
:1046F80083035B6813B101929847019804F500544D
:10470800D4F804381BB102B0BDE81040184702B015
:1047180010BD04F50054D4F80437002BF0D00192F2
:1047280098470198ECE700BF2DE9F04F8C468DB013
:104738000F4605466C46064600F110084FF0010981
:10474800DFF814A1BCE80F000FC49CE8030084E85C
:10475800030056F8044F5CB19DF91420A36809FAC8
:1047680002F1194256D02368D3F800B0D3454CD192
:104778004645EED105F5005393F80037002B5FD07E
:10478800EE8A4FF01A0C386806AC7968F6B2BA6847
:10479800FB680CFB06560FC4002338697969182298
:1047A80086F81A31EB8A0DEB0206DBB20CFB0353D9
:1047B80003C483F81B21EC8AE4B20FCE0CFB04542B
:1047C800C4F81C01C4F82011C4F82421C4F8283105
:1047D80003CEC4F82C01C4F83011EA8AAB8A92B22D
:1047E8009BB283F480739A4224D0EB8A0133C3F3DB
:1047F8000803EB822B8B9BB2FF2B03D82B8B013347
:104808009BB22B830DB0BDE8F08F9DF8153069463B
:104818002046D847237C002BAAD02368D3F800B0C1
:104828009DF81530D345A3D020464FF0FF32694696
:10483800D8479DE7AB8A0133C3F30803AB82D4E7BB
:104848003B7D3A4606A928468DF81830FFF746FF03
:104858000DB0BDE8F08F00BFDD0E000000F500537D
:1048680093F80137002B00F0DB80DFF86CC22DE9EC
:10487800F04F0F4689B005460E4602AC0FCF0FC465
:1048880097E8030084E80300DCF800309B0052D569
:10489800DCF8343000244FF06309C3F3036A22467E
:1048A8004FEACA0A0AF1080A0CE05B0F022B3B68C0
:1048B80000F09A805B0F052B00F0DD800134E2B236
:1048C800924538D996F91430632B34D004EB440858
:1048D80005EBC80B0BF5F0573B6813F0604FEDD0B4
:1048E8003B685B0F012B3B68DFD1C3F30043F279D0
:1048F8009A42E3D13B6813F4607FDFD04FEA480B5C
:10490800002306E03A685FFA88F3C2F3C2129342C2
:10491800D4D203F10108029A0BEB080303F5F06304
:1049280055F823309A42EDD102A928468DF81C90FB
:10493800FFF7FAFEE6E70023674F8DF80E303C6874
:1049480014F000543FD0FEF7D9FA3B68044603F050
:104958007F030133834233D942F2041742F2081825
:10496800DFF8749196F91430A34220D004EB440187
:1049780005EBC10202F5045ADAF8003013F0604F73
:1049880015D0DAF80030F079C3F3C06398420ED13D
:10499800DAF800305B0F012BDAF8003041D05B0FFA
:1049A800022B12D0DAF800305B0F052B5BD0D9F858
:1049B8000030013403F07F03E4B201339C42D1D3C9
:1049C80009B0BDE8F08F3B68C6E7D159029B8B421E
:1049D800EDD352F808209342E9D802A928468DF869
:1049E8001C40FFF7A1FEE2E7C3F30043F2799A42C5
:1049F8007FF464AF41F604635BF80320029B9342A3
:104A0800FFF45CAF41F608625BF8022093423FF680
:104A180055AF02A928468DF81C90FFF785FE4DE793
:104A2800704713F4607FC2D04A00002307E0DAF829
:104A380000105FFA8BF3C1F3C2118B42B7D203F1B6
:104A4800010B029902EB0B0303F5046355F82330BD
:104A58009942ECD102A9284600928DF81C40FFF734
:104A680063FE009AE3E7029A21462846FFF7D0FD45
:104A780000289CD0B1E73B6813F4607F3FF41EAF79
:104A880041F6146301275B440AE00BF5F051013746
:104A98000968FFB2C1F3C21101318F42BFF40EAFF2
:104AA80007EB4801186801F5F06155F821E0029913
:104AB800D3F800C008400EEA0C018842E5D102A9EB
:104AC800284601938DF80E2000928DF81C90FFF770
:104AD8002BFEDDE90023D8E700001D402DE9F04F4B
:104AE800934D9BB0934F08AC05900FCD0FC495E83C
:104AF800030084E803007E6AB96AD7F82C90386B03
:104B08003B68039113F40043049003D13A6895007D
:104B180000F11881049B43F00103B9F1000F00F084
:104B28000281B9FA89F3834DC3F140032C68DFB2DF
:104B380014F00054029700F09F82FEF7DFF92B680B
:104B4800044603F07F030133984280F0C280874215
:104B580040F2BF80059B671CDFF8D8B103F500530E
:104B6800FDB2019706931AE0042A00F05881082A3A
:104B780000F0E281DBF800309DF8044003F07F0389
:104B8800029A0133A24288BFAB4205F1010594BFE6
:104B980001230023002B40F09C80631C0193C4F187
:104BA8002002039BA4F1200A06FA02F1E3400B431A
:104BB80026FA0AF10B43DF07DCD5049B09FA02F257
:104BC800E340134329FA0AF21343D807D2D5DFF892
:104BD8007081A0444FEA0818D8F80030190EC3F3C2
:104BE800036201F00B010229BED1D8F8041003F4C6
:104BF800001021F06041002812BF4FF0010C4FF067
:104C0800000C890C062A8DF827C0089102D10122D0
:104C18008DF82920ADF82430C3F303438DF83440D0
:104C280000288DF82B30069B93F815398DF8353010
:104C3800D8F808308DF82F30D8F808304FEA132309
:104C48008DF82E30D8F808304FEA13438DF82D3000
:104C5800D8F808304FEA13638DF82C30D8F80C30A8
:104C68008DF83330D8F80C304FEA13238DF83230F2
:104C7800D8F80C304FEA13438DF83130D8F80C309F
:104C88004FEA13638DF8303014BF4FF08C634FF048
:104C980080631F2CC8F80030DBF808304FF00103A0
:104CA80031D8A34021460598CBF83030089AFFF751
:104CB800AFFC002832D108A90598FFF7CFFD08A856
:104CC800AFF3008008A8AFF3008008A8AFF3008016
:104CD80050E7184A1848116A0268184B4A401340AE
:104CE80043B1059B03F58053B3F8D42C92B20F2A35
:104CF80040F2DB810F4A136A0B431362BFF34F8FF5
:104D08001BB0BDE8F08F03FA0AF321460598CBF8EB
:104D18002C30089AFFF77CFC0028CCD008A905980D
:104D2800FFF702FDC7E7B3FA83F32033FBE600BFC2
:104D38000004002000001D40B8560020BFFF0700F7
:104D480008D001048C067FF5E5AE81067FF5E2AE5A
:104D5800D7F88020C94C02F40011C2F30050ADF816
:104D680024200029C2F303414FEAD2528DF82B10B8
:104D7800D7F884108DF8280018BF012021F0604171
:104D880008BF00208DF826204FF0000208BF890CCC
:104D98008DF827000CA80891D4F88810D140083263
:104DA800202A00F8011DF7D10DA9B448D0F88C20AD
:104DB800DA400833202B01F8012DF7D1059A02F5C6
:104DC800005292F815298DF8352063228DF8342089
:104DD80082680363049B5A0601D540230363049B3E
:104DE8001B0602D5A54B80221A63059C08A92046FC
:104DF800FFF734FD08A8AFF3008008A8AFF30080E0
:104E080008A8AFF3008008992046FFF789FB00281F
:104E18003FF480AE08A90598FFF786FC7AE603F40C
:104E28000012002AD8F80420ADF82430C3F3034355
:104E38008DF8344022F060428DF82B3018BF0121E4
:104E4800069B04BF920C002193F8153908928DF83F
:104E58003530D8F80830059A8DF82F30D8F8083052
:104E68008DF827101B0A8DF82E30D8F808301B0C47
:104E78008DF82D30D8F808301B0E8DF82C30D8F866
:104E88000C308DF83330D8F80C301B0A8DF83230DE
:104E9800D8F80C301B0C8DF8313004F6022352F888
:104EA8002330D8F80C20120E8DF830200BB108A84A
:104EB8009847069BD3F808390BB108A89847059975
:104EC80001F58052B2F81E3B17469BB2002B00F04A
:104ED800D780B2F81A3B1A220DF1500C03F00F03D9
:104EE800E04602FB031341F632320EA903EB020A35
:104EF80098588E460791DAF80820DAF80410DAF89C
:104F08000C30ACE80F00DAF81000DAF81410ACE84E
:104F18000300B8E80F00AEE80F0098E803008EE839
:104F280003009DF94C30591C00F023819C427FF40A
:104F380021AE079AE1B21EE103F40012002AD8F864
:104F48000420ADF82430C3F303438DF8344022F035
:104F580060428DF82B3018BF0121069B04BF920CCC
:104F6800002193F8153908928DF83530D8F80830B3
:104F7800059A8DF82F30D8F808308DF827101B0ABD
:104F88008DF82E30D8F808301B0C8DF82D30D8F855
:104F980008301B0E8DF82C30D8F80C308DF83330D3
:104FA800D8F80C301B0A8DF83230D8F80C301B0CAE
:104FB8008DF83130D8F80C301B0E8DF8303004F6EF
:104FC800022352F823300BB108A89847069BD3F860
:104FD80008390BB108A89847059901F58058B8F821
:104FE8001E3B9BB2002B58D0B8F81A3B1A220DF181
:104FF800500C03F00F03674602FB031341F63232ED
:105008000EA903EB020A98588E460791DAF8082091
:10501800DAF80410DAF80C30ACE80F00DAF810000F
:10502800DAF81410ACE803000FCFAEE80F0097E8E9
:1050380003008EE803009DF94C305A1C00F0B28042
:105048009C427FF497AD079AE1B20598FEF74EFDB2
:10505800B8F81A3B013303F01F03A8F81A3BB8F855
:105068001E3B9BB2002B3FF485ADB8F81E3B013BBD
:105078009BB2A8F81E3B7DE52B686BE500001D4040
:105088001F2C4FF001036BD903FA0AF3CBF82C302D
:105098004FF00063C8F800306CE51F2C4FF0010397
:1050A80062D8A340CBF8303064E5B3F8D42C92B280
:1050B8000F2A05D8B3F8D42C013292B2A3F8D42C15
:1050C800B3F8D22CB3F8D24C02F00F02A4B203EB1F
:1050D8008202C2F8D81CB3F8D02C92B282F0100227
:1050E800944206D1B3F8D02C013202F01F02A3F883
:1050F800D02CB3F8D22C2D4C013202F01F02A3F8A9
:10510800D22CE469B3F89C2DA4B292B20F2A05D828
:10511800B3F89C2D013292B2A3F89C2DB3F89A2DC6
:1051280002F00F0203EB4202A2F89E4DB3F89A4D2B
:10513800B3F8982DA4B292B282F01002944206D12C
:10514800B3F8982D013202F01F02A3F8982DB3F896
:105158009A2D0160013202F01F02A3F89A2DC9E5C9
:10516800A340CBF8303093E703FA0AF3CBF82C309E
:1051780000E5079A21460598FEF7B8FCB7F81A3BF0
:10518800013303F01F03A7F81A3BB7F81E3B9BB285
:10519800002B3FF4EFACB7F81E3B013B9BB2A7F8DE
:1051A8001E3BE7E4079A21464FE700BF00001D4079
:1051B8002DE9F04300F500578FB0044697F8003703
:1051C80013B9012387F80037238B9BB2002B57D1E3
:1051D800D7F80C2904F58056724B02F01F0103EB37
:1051E800521301229B008A401A60B6F81E3B9BB2FC
:1051F80083B3B6F81A3B1A2208AD0DF1080C03F078
:105208000F03AE4602FB034341F6323203EB0208BA
:105218009858D8F80410D8F80820D8F80C300FC5DA
:10522800D8F81000D8F8141003C5BEE80F00ACE891
:105238000F009EE803008CE803009DF91C104B1C2E
:1052480054D0594B0B441B011B68C3F30363082B51
:1052580000F08B80D7F80C29544B02F01F0103EBA8
:10526800521301229B008A4000211A60238BB6F852
:105278001E0B9BB280B240EA03300FB0BDE8F0834A
:10528800A68A1A23B4F814C008ADF6B20CF1010CC2
:1052980003FB0646CCF3080CD6F81C01D6F82011FF
:1052A800D6F82831D6F824210FC5D6F82C01D6F81F
:1052B8003011A4F814C0238B9BB203C51BB1238BF8
:1052C800013B9BB2238308AD02AE0FCD0FC695E814
:1052D800030002AA86E803009DF81C300DF10701BF
:1052E80020468DF80730FFF7F9F971E7DFF8C0803D
:1052F800D8F8005015F0005550D0FDF7FFFDD8F84C
:105308000030054603F07F0301338342A2D9DFF85A
:105318009890DFF89C8008E0D8F80030013503F059
:105328007F03EDB201339D4294D205EB09031B01C3
:105338001B68C3F30363082BEED102AA2946204653
:10534800FEF7D4FBB6F81A3B013303F01F03A6F8A7
:105358001A3BB6F81E3B9BB2002BDDD0B6F81E3BBD
:10536800013B9BB2A6F81E3BD6E702AAC9B220466B
:10537800FEF7BCFBB6F81A3B013303F01F03A6F88F
:105388001A3BB6F81E3B9BB2002B3FF463AFB6F84E
:105398001E3B013B9BB2A6F81E3B5BE7D8F80030EA
:1053A800B5E700BF6038003808D00104403800383D
:1053B80000001D4010B40023154A164C164802F58B
:1053C800805193822260D3821060138302F50052C9
:1053D800A1F81A3B82F81439A1F81C3B5DF8044B7C
:1053E800A1F81E3BC2F80C39A1F8D03CC2F810391C
:1053F800A1F8D23CA1F8D43CA1F8983DA1F89A3D77
:10540800A1F89C3D82F8003782F80137704700BF49
:10541800142A0020605400209C0F0020B0F80100DE
:1054280040BA80B2704700BFC078003818BF01206A
:10543800704700BF007970474078704780787047A0
:1054480040787047408840BA80B2704740787047CB
:105458004078704780787047407870478078704708
:105468009FED067ADFED067A30EE070A20EE270A6E
:10547800BCEEC00A10EE103A98B27047008088431C
:1054880000000042DFED067A82B030EE270AFCEE1B
:10549800C07ACDED017A9DF8040002B0704700BFD4
:1054A80000002042000000009FED096BB7EEC00A23
:1054B80082B080EE067BB7EEC77BFCEEC77ACDEDF7
:1054C800017A9DF8040002B0704700BFAFF3008076
:1054D8009A9999999999D93FF2EE007A20EE270A7C
:1054E800BCEEC00A10EE103A98B27047F5EE007A9A
:1054F80082B020EE270AFCEEC07ACDED017A9DF845
:10550800040002B0704700BFF6EE007A82B020EEC9
:10551800270AFCEEC07ACDED017A9DF8040002B0AE
:10552800704700BF30EE000A82B0FCEEC07ACDEDC5
:10553800017A9DF8040002B0704700BF48B1012805
:105548000AD0DFED077A02289FED060A07FE800AD7
:1055580070479FED050A70479FED040A704700BF2A
:105568003815A93A00000000BEC5C23A3480B73ADF
:1055780048B101280AD0DFED077A02289FED060A14
:1055880007FE800A70479FED050A70479FED040AE1
:10559800704700BF556A763900000000010A6F396C
:1055A8003483783948B101280AD0DFED077A022818
:1055B8009FED060A07FE800A70479FED050A7047AF
:1055C8009FED040A704700BF0646C1330000000083
:1055D800C6960034D399D43348B101280AD0DFEDF8
:1055E800077A02289FED060A07FE800A70479FED9A
:1055F800050A70479FED040A704700BF00803B45CD
:105608000000000000081D4600A01B4502288CBFB2
:1056180000200120704700BF0F2803D8024B33F841
:1056280010007047002070474C040020A0F11403BC
:105638000A2B01D90020704714280AD01538C0B2A7
:10564800092802D14FF4FA707047034B33F8100061
:1056580070470F20704700BF740400200F288CBFCC
:1056680000200120704700BF0F2805D914380A28E8
:105678008CBF0020012070470120704707288CBF8D
:1056880000200120704700BF9FED010A704700BF4E
:1056980066A6CA4200000000B5EEC00AF1EE10FA94
:1056A80006D9F1EE047AB4EEE70AF1EE10FA02DB5D
:1056B8009FED1B0A7047D0ED045AB7EEC07AB1EEE1
:1056C800046B20EE250A36EE476BB7EEC07A10B5AC
:1056D80087EE060B0446B7EEC00B06F0CDF994ED45
:1056E800027AD4ED017AF7EE005A94ED035AE7EE08
:1056F800007A20EE007A9FED086B27EE007AE5EE3F
:10570800077A85EEA70AB7EEC00A30EE460BB7EE69
:10571800C00B10BDAFF30080666666666612714006
:10572800339388C300000000F6EE007AF0EE606A5A
:10573800B4EEE70AF1EE10FA29D4F1EE027AB4EEEB
:10574800E70AF1EE10FA25DCB7EEC00A0379B6EEE7
:10575800007BB5EE005B30EE477B27EE057BF7EE6E
:10576800C77BE3B9438844F6206293422ED99B1A3B
:105778009FED1F7A00EE103AB8EEC00A20EE270A15
:1057880020EE070AB5EEC00AF1EE10FA01D59FED3A
:10579800190A70470379F7EE007A002BE2D04388A4
:1057A80007EE103AB8EE477A9FED0F5B27EE277A9F
:1057B800B7EEC77A27EE057BB7EEC70B30EE260AA1
:1057C800B5EEC00AF1EE10FAE1D4704707EE103AD0
:1057D800B8EE470A20EE270AB5EEC00AF1EE10FA35
:1057E800D5D47047AFF30080E277D32D3B941B40AC
:1057F8000000C84200000000AF2814D8AA2823D807
:105808005E3880B2102835D8012249F2411102FAD7
:1058180000F30B4228D113F4843F1CD10E2814BF87
:10582800002004207047B0F58D6F16D840F266430B
:10583800984219D8B0F5B17F1AD040F2B913C01AFE
:10584800B0FA80F040097047AC38032810D8DFE878
:1058580000F0020D020201207047A0F26B400228FE
:105868008CBF00200120704702207047032070473A
:10587800042070470020704710B500F1A00C864640
:1058880003461A8914338A4226D09C45F9D100F17F
:105898002A040346B3F8A82006338A421CD09C4247
:1058A800F8D1AD2926D0AB2918D06C2916D0B1F57E
:1058B800B17F13D040F26563994212D040F253533E
:1058C800994207D1BEF808300EF1140E692B03D0A7
:1058D800E645F7D1002010BD012010BD90F8D60094
:1058E80010BDBEF808300EF1140E6E2BF4D0F4453E
:1058F800F7D1EFE790F8D20010BD00BFAF2831D83C
:105908005D282DD95E3851282AD8DFE800F078299B
:105918002929292976297A29295E70296E748029EE
:1059280029292929292929292929292929292929DF
:1059380029292929292929292929292929292929CF
:1059480029292929292929292929292929292929BF
:105958002929292929292929292929727C6C7E8222
:10596800FF20704740F26D43984219D840F26643D1
:10597800984220D9A0F267400628F1D801A353F82D
:1059880020F000BF5F3B00005B3B0000E13A0000F5
:10599800E13A0000573B0000533B0000633B000026
:1059A80040F25353984210D040F26563984214BFB6
:1059B800FF2001207047B0F5B17F08D040F2B9133D
:1059C800984214BFFF200820704703207047132017
:1059D800704705207047042070470F2070470E203D
:1059E80070470620704710207047122070470D201E
:1059F8007047112070470A207047092070470B2014
:105A080070470C207047072070470220704701201C
:105A180070470020704700BF024A034B10601960AE
:105A2800704700BFD8550020DC550020F8B5044663
:105A380008460D4616461F46FFF7DEFE04281CD012
:105A48002EB103280ED8DFE800F052342C240328A6
:105A580008D8DFE800F06D60025A4F4B00221B683F
:105A680083F8D22000232370E3716370A370E3707E
:105A780023716371A3712046F8BD002303222046D9
:105A8800E3716370A370E37023716371A371227073
:105A9800F8BD414A0123106880F8D630FCF7DAFCDB
:105AA800E0E73D4A0123106880F8D230FCF742FE57
:105AB800D8E73846FDF74CF900285CD0364B00266D
:105AC8001868034600F12A01B3F8A8200633AA4251
:105AD80008BFA3F8A2609942F6D17B1E03EB4303EB
:105AE80000EB4303A3F8A850FCF72EFABAE73846B0
:105AF800FDF728F940BB0423E0716070A070E070E6
:105B080020716071A0712370B5E7234B00221B68D8
:105B180083F8D620A6E7204A002310680246B2F888
:105B2800A8100632A9422FD00133072BF7D199E7E5
:105B3800194A00231068024611891432A9421CD060
:105B48000133082BF8D18DE7134B0026186803465C
:105B580000F1A0011A891433AA4208BF23F80C6C7B
:105B68009942F7D17B1E03EB830300EB83031D816E
:105B7800FCF7EAF976E70523BEE703EB8303002287
:105B880000EB830002816DE703EB4303002200EB87
:105B98004300A0F8A82065E7D855002070B5044652
:105BA80008460D461646FDF7D3F850B90523E071AF
:105BB8006070A070E07020716071A0712046237041
:105BC80070BD0A4A013D00232046126805EB4505D1
:105BD800237002EB4502E3716370A370E370A2F8CF
:105BE800AA6023716371A37170BD00BFD8550020EE
:105BF80038B5044608460D46FFF740FD50B907235F
:105C0800E0716070A070E07020716071A071204632
:105C1800237038BD074A0023204612682370E371B9
:105C2800637082F8D350A370E37023716371A3711A
:105C380038BD00BFD8550020F8B5044608460D46C3
:105C48001646FDF77FF850B90423E0716070A07024
:105C5800E07020716071A07120462370F8BD304655
:105C6800FFF7D4FC08B90A23EFE7134B013D304690
:105C78001F6805EB8505FFF761FC304607EB8505D6
:105C880085ED030AFFF774FC304685ED040AFFF73B
:105C980089FC304685ED050AFFF79EFC0023204667
:105CA80085ED060A2370E3716370A370E3702371B6
:105CB8006371A371F8BD00BFD8550020F8B504463C
:105CC80008460D461646FDF743F850B90523E0711E
:105CD8006070A070E07020716071A0712046237020
:105CE800F8BD3046FFF7C0FC08B90A23EFE7114BAF
:105CF8003046013D1F68FFF7B1FCB0B13046FFF7F1
:105D08008BFC002105EB4505002307EB45022370BA
:105D1800E371A2F8AA00204682F8AC106370A37061
:105D2800E37023716371A371F8BD3046FFF77EFC01
:105D38000121E7E7D855002070B5044608460D460E
:105D480016462DED028BB0EE408AFCF7FBFF60B9DA
:105D58000423E0716070A070E07020716071A07120
:105D680023702046BDEC028B70BD1E4B013D1B68A5
:105D7800032E2BD8DFE806F0151C230205EB85055A
:105D880003EB850383ED068A002320462370E37125
:105D98006370A370E37023716371A371BDEC028B10
:105DA80070BD05EB850503EB850383ED038AEBE7FF
:105DB80005EB850503EB850383ED048AE4E705EB32
:105DC800850503EB850383ED058ADDE700230622BD
:105DD800E3716370A370E37023716371A371227020
:105DE800BFE700BFD85500200E4B10B50446186811
:105DF800FCF710FC50B1002320462370E371637058
:105E0800A370E37023716371A37110BD0923E0715E
:105E18006070A070E07020716071A07120462370DE
:105E280010BD00BFD8550020084B10B504461868AF
:105E3800FCF706FC002320462370E3716370A3700F
:105E4800E37023716371A37110BD00BFD8550020A2
:105E5800174B4FF0000C30B51D682A4605F1A00419
:105E68002B4619890CF1010E143309B15FFA8EFC27
:105E78009C42F6D105F12A040021B2F8A83001F1BC
:105E8800010E06320BB15FFA8EF1A242F5D195F8F8
:105E9800D22095F8D630C27004220371002380F80E
:105EA80001C08170037043718371C27130BD00BF3E
:105EB800D8550020074B1A68517992F8D3204170C1
:105EC800022182700022C1710270C2700271427197
:105ED80082717047D855002001EB4101174B844669
:105EE800C9B230B5C81C83B01C684FF0FF0E6A46B3
:105EF800C0B201EB8103072904EB830318D81B897F
:105F08001D0A5370157001310232C9B28842F0D1AE
:105F1800009800210622BDF80430CCF80100604644
:105F28008CF800108CF80720ACF8053003B030BDB1
:105F380082F800E082F801E0E5E700BFD8550020CC
:105F480001EB4101174B8446C9B230B5C81C83B078
:105F58001C684FF0FF0E6A46C0B201EB41030629E8
:105F680004EB430319D8B3F8A8301D0A5370157011
:105F780001310232C9B28842EFD1009800210622CD
:105F8800BDF80430CCF8010060468CF800108CF89D
:105F98000720ACF8053003B030BD82F800E082F885
:105FA80001E0E5E7D8550020024A034B106019606C
:105FB800704700BF0056002004560020AF2800F0AC
:105FC80089801FD86E2814D85D284FD95E381028CC
:105FD8000ED8DFE800F06B0D0D0D0D0D700D750D71
:105FE8000D61660D0D7A3D003E4B1B6883ED080A76
:105FF8007047AC283CD0AE2872D13A4B1B6883ED71
:10600800100A704740F26D43984219D840F266432F
:10601800984222D9A0F267400628E9D801A353F88C
:1060280020F000BFFB410000694100007141000001
:1060380071410000054200000F420000F1410000DC
:1060480040F25353984227D040F26563984246D1B4
:10605800244B1B6883ED050A704740F2B913984238
:1060680005D1204B1B6883ED110A704770477047B4
:106078001C4B1B6883ED0E0A70471A4B1B6883ED97
:106088000B0A7047174B1B6883ED0C0A7047154BBA
:106098001B6883ED070A7047124B1B6883ED0A0AD9
:1060A8007047104B1B6883ED0D0A70470D4B1B683A
:1060B80083ED0F0A70470B4B1B6883ED040A70478A
:1060C800084B1B6883ED090A7047064B1B6883ED74
:1060D800060A7047034B1B6883ED030A7047704735
:1060E800704700BF045600202DE9F8430826002415
:1060F800DFF8489004EB8405D9F800705FFA84F85B
:10610800013407EB850540462B8983B1FCF7EAFD8E
:10611800034640469846FCF7F1FD01464046FCF729
:1061280005F9B819FFF7B8FA2889FFF747FF082CCF
:1061380006F11406DED1BDE8F88300BF0056002042
:106148002DE9F047A8250024204FDFF884802DEDA5
:10615800028BD7F8009004EB44035FFA84FA09EB4A
:10616800430366005046B3F8A8303BB3FCF7D2FDB2
:10617800034650469A46FCF7D9FD01465046FCF7BF
:10618800D5F8D8F80030B0EE408A33B1D3ED020A22
:10619800F5EEC00AF1EE10FA03DCFFF775FAF0EE3F
:1061A800400A264409EB0500B0EE480A09EB460907
:1061B800FFF7BAFAB9F8A800FFF700FF013406356F
:1061C800072CC6D1BDEC028BBDE8F0870056002035
:1061D800045600200D4B1B6893F8D63003B970475E
:1061E80070B5FCF7FBF900B970BD094C2668FCF7DF
:1061F800C5F9256886ED010AFCF7D0F9246885ED14
:10620800000AFCF7DBF984ED020A70BD0056002095
:106218000456002038B50E4C236873B10D4D2B6819
:106228005BB1FFF761FFFFF78BFF236893F8D2306C
:1062380023B9BDE83840FFF7CDBF38BDFCF7E8FB10
:106248000028F6D02C68FCF7D3FB84ED120AF0E79F
:106258000056002004560020014B01221A70704796
:10626800825A0020036818470B680360704700BF14
:106278000B680360704700BF704700BF10B5044645
:1062880002F0EEFE204610BD70B5284D284E2B6852
:1062980032689B1AB3F5FA7F2BD2264E2B683268E8
:1062A8009B1AB3F57A7F00D270BD234C94ED021A85
:1062B800D4ED0E0A94ED010AFEF78EF894ED031A58
:1062C800D4ED100A94ED050AFDF7FEFFD4ED050A9A
:1062D80094ED0A0AFDF70CFF94ED111AD4ED070AA4
:1062E80094ED0C0AFDF772FFFDF738FF2B68336059
:1062F80070BD114CD4ED091A94ED121AD4ED0E0AA2
:1063080094ED0D0AFEF7B0F894ED061AD4ED040AE0
:1063180094ED0F0AFEF71CF8D4ED0B0A94ED090A68
:10632800FDF79CFF2B683360B7E700BF605A002079
:106338005C54002058540020E82800202DE9F04340
:106348003E4D8DB03E4C40F2EE283E4FDFF8249192
:106358002E6804F085FE2378002B5AD03B78DB07A3
:1063680057D52B68D9F800209B1A0E2B51D9142128
:10637800354804F0F7FD354802F010FF3448FCF7C3
:10638800A3F9002852D11D21324804F0EBFD2F4813
:1063980002F004FF2E48FCF753F92D48FCF73AF9B0
:1063A8002B48FBF7D1FD2A48FCF7C4F92848FCF72D
:1063B80051F829492648FFF7F7FD27492448FFF7F0
:1063C8002BFB23492448FCF74FFF2349204800F0C2
:1063D80089F8224B224A02A908A800930693029240
:1063E800FFF742FF1F4A06A91F4802F0B7FD069BA8
:1063F80008A8DB689847009B02A8DB6898470A2131
:106408001A4804F0AFFD11480DB0BDE8F04302F0A2
:10641800C5BE2B6822789B1B2AB1B3F5FA6FA6D8A4
:1064280004F01EFE95E74345FAD9A0E7202110485D
:1064380004F098FD054802F0B1FEB1E7605A00206B
:106448009B5A00209A5A0020700600202818002025
:106458003429002088060020E82800205C1000204D
:10646800D94300007F4F1200F81B0020CC06002003
:10647800A8060020705A002010B50C4C23782BB9C0
:1064880001F048F9BDE81040FFF7FEBEFBF7ECFE4F
:10649800FCF756FAFBF784FFFFF7BCFE00232370D6
:1064A80001F038F9BDE81040FFF7EEBE825A00202F
:1064B800064A0749074808B504F008FF064B07498C
:1064C8001868074A1B680860136008BD0C1C002088
:1064D800FD430000F81B0020605A00205C54002097
:1064E800585400200E4A002310B5106080220D4C2D
:1064F8000D482160194603700C4C0D4806F0A2FAAD
:106508002A210C4804F02EFD204602F047FE4E21B9
:10651800094804F027FD2046BDE8104002F03EBEC1
:106528002456002034560020905A002028180020B5
:10653800385600201809002044090020494BF0B5BE
:10654800197A83B0032942D9DE786846B3F8014046
:10655800321E64BA18BF01220429A4B214BF1F79DD
:10656800002721463B46FFF761FA9DF80050C5B960
:106578002046FFF741F92EB1032870D8DFE800F074
:106588006149464302283BD003282AD007213648D0
:1065980004F0E8FC2146354802F0F4FD09213448AE
:1065A80017E00421334804F0DDFC00230A222946C1
:1065B8002E4802F001FE042D4ED0052D1DD0032DCE
:1065C80012D02A4803B0BDE8F04002F0E7BD292107
:1065D800294804F0C7FC254803B0BDE8F04002F0A4
:1065E800DDBD12212548F4E70E21254804F0BAFC48
:1065F80021461E4802F0C6FDE3E724212148E8E7CA
:106608000F212148E5E726212048E2E70E2120480E
:10661800DFE70721144804F0A5FC2146134802F0DF
:10662800B1FD10211B4804F09DFC00230A223946C5
:106638000E4802F0C1FD0D4803B0BDE8F04002F07D
:10664800ADBD0721084804F08DFC2146074802F03B
:1066580099FD10211048E6E720211048B9E70221EA
:106668000F48B6E728560020C00B00202818002045
:10667800500C00205C0B0020300B00203C0C00204C
:10668800640B0020980B00202C0C0020000C00202C
:10669800F00B0020DC0B0020C80B0020740B00203E
:1066A800280C00201E4B70B51A7A82B0032A2DD907
:1066B8005C8868465D7864BA2946A4B22246FFF72A
:1066C8006DFA9DF80060BEB90721164804F04AFC2F
:1066D80033460A222946144802F06EFD0D2113485C
:1066E80004F040FC2146104802F04CFD0E4802B070
:1066F800BDE8704002F052BD17210D4804F032FC8D
:10670800094802B0BDE8704002F048BD3721094889
:1067180004F028FC044802B0BDE8704002F03EBD19
:1067280028560020080F002028180020100F0020ED
:10673800F00E0020B80E0020184B30B51A7A83B03E
:10674800012A21D95C7868462146FFF751FA9DF85D
:1067580000507DB91521124804F004FC2B460A228A
:106768002146104802F028FD0E4803B0BDE830402D
:1067780002F014BD16210C4804F0F4FB094803B0DC
:10678800BDE8304002F00ABD1921084804F0EAFBD0
:10679800044803B0BDE8304002F000BD2856002090
:1067A800140D002028180020FC0C0020E00C00200C
:1067B8002DE9F047AB4C237A012B40F246816378F0
:1067C800002B00F04281042B08D01721A64804F0C2
:1067D800C9FBA648BDE8F04702F0E0BC1A21A4486E
:1067E80004F0C0FBA34DA14802F0D8FC0F21A24839
:1067F80004F0B8FB29680A22002349799B4802F073
:10680800DBFC9A4802F0CAFC0D219C4804F0AAFB64
:106818002B689B4F93F8D2309A4E002B15BF03215B
:1068280002213846304604F09DFB904802F0B6FC41
:106838000921954804F096FB2B680A228B4893F8A7
:10684800D310002302F0B8FC884802F0A7FC1021FE
:106858008E4804F087FB2B6893F8D630002B15BFC1
:10686800032102213846304604F07CFB7F4802F0C1
:1068780095FC002363701421854804F073FB7B4862
:1068880002F08CFCDFF8208200232968774E814FC4
:1068980002E04B46082B30D003EB830203F10109D9
:1068A80001EB820094000289002AF2D004214046BC
:1068B80004F058FB4946304602F064FC0221384691
:1068C80004F050FB2B6823441889FFF717F8724B24
:1068D800724A1B78834257D052F8204020462CB188
:1068E80006F04EF90146204604F03CFB304602F023
:1068F80055FC4B462968082BCED14FF00009DFF82C
:10690800AC815A4E634F03E0BAF1070FD14633D03A
:1069180009EB490309F1010A01EB43025C00B2F8F3
:10692800A830002BF0D00421404604F01BFB514650
:10693800304602F027FC0221384604F013FB2B688E
:106948002344B3F8A800FEF7D9FF534B534A1B78EA
:1069580083421CD052F8204034B1204606F010F98A
:106968000146204604F0FEFA3046D14602F016FCF5
:10697800BAF1070F2968CBD191F8D23053B991F801
:10698800D6300BBBBDE8F0870721454CABE70721A4
:10699800434CE6E7AD20FEF7B1FF3F4B1B7883423F
:1069A80055D03E4B53F8204034B1204606F0E8F865
:1069B8000146204604F0D6FA2C4802F0EFFB29687D
:1069C80091F8D630002BDDD0AB20FEF797FF324B85
:1069D8001C78A04243D0314B53F8205035B128469B
:1069E80006F0CEF80146284604F0BCFA02212D48EC
:1069F80004F0B8FA6C20FEF781FFA0422CD0274B98
:106A080053F8205035B1284606F0BAF80146284612
:106A180004F0A8FA0221234804F0A4FA4FF4B17054
:106A2800FEF76CFFA04215D01C4B53F820403CB138
:106A3800204606F0A5F881464946204604F092FA19
:106A48000A48BDE8F04702F0A9BB0A4D13E75146D2
:106A5800134CAEE7124CEFE70721114DD7E707219A
:106A68000F4DC0E728560020FC09002028180020F8
:106A7800C009002024560020DC090020EC09002071
:106A8800A00900209C090020140A0020200A0020E8
:106A9800A4090020700B0020A8160020D8060020AA
:106AA80094090020BC090020D40B0020E80B00202A
:106AB80000B583B018210B4804F054FA6846FFF774
:106AC80093F99DF800304BB90221074804F04AFABF
:106AD800064803B05DF804EB02F060BB11210448DE
:106AE800F4E700BFE8080020280C00202818002040
:106AF8000409002010B50B4C82B018210A4804F094
:106B080031FA204602F04AFB6846FFF78DF9122158
:106B1800064804F027FA204602B0BDE8104002F00B
:106B28003DBB00BF28180020340A0020500A00206E
:106B3800224B70B51A7A86B0022A39D95E7801A834
:106B48009C7831462246FFF777F89DF804505DB1EE
:106B5800042D30D019211A4804F004FA194806B057
:106B6800BDE8704002F01ABB174B93E8070006AB6C
:106B780003E907000721154804F0F4F92B460A2217
:106B88003146104802F018FB0821114804F0EAF9D0
:106B980006AB03EB840454F80C4C34B1204605F0E2
:106BA800EFFF0146204604F0DDF907210948D3E745
:106BB80030210948D0E717210848CDE7285600209A
:106BC800A80C00202818002018040020C40C00205D
:106BD800CC0C0020D80C00205C0C0020900C00206D
:106BE800274B70B51A7A82B0022A2BD95E7868468C
:106BF8009C7831462246FFF761F89DF800505DB158
:106C0800052D2BD030211F4804F0ACF91E4802B0E6
:106C1800BDE8704002F0C2BA07211C4804F0A2F98E
:106C28002B4631460A22184802F0C6FA08211848AD
:106C380004F098F90F2C14D9143CE3B20A2B04D9A8
